{
    "contractName": "TwtToUsdAssimilator",
    "abi": [
        {
            "inputs": [],
            "stateMutability": "nonpayable",
            "type": "constructor"
        },
        {
            "inputs": [],
            "name": "getRate",
            "outputs": [
                {
                    "internalType": "uint256",
                    "name": "",
                    "type": "uint256"
                }
            ],
            "stateMutability": "view",
            "type": "function"
        },
        {
            "inputs": [
                {
                    "internalType": "int128",
                    "name": "_amount",
                    "type": "int128"
                }
            ],
            "name": "intakeNumeraire",
            "outputs": [
                {
                    "internalType": "uint256",
                    "name": "amount_",
                    "type": "uint256"
                }
            ],
            "stateMutability": "nonpayable",
            "type": "function"
        },
        {
            "inputs": [
                {
                    "internalType": "uint256",
                    "name": "_baseWeight",
                    "type": "uint256"
                },
                {
                    "internalType": "uint256",
                    "name": "_quoteWeight",
                    "type": "uint256"
                },
                {
                    "internalType": "address",
                    "name": "_addr",
                    "type": "address"
                },
                {
                    "internalType": "int128",
                    "name": "_amount",
                    "type": "int128"
                }
            ],
            "name": "intakeNumeraireLPRatio",
            "outputs": [
                {
                    "internalType": "uint256",
                    "name": "amount_",
                    "type": "uint256"
                }
            ],
            "stateMutability": "nonpayable",
            "type": "function"
        },
        {
            "inputs": [
                {
                    "internalType": "uint256",
                    "name": "_amount",
                    "type": "uint256"
                }
            ],
            "name": "intakeRaw",
            "outputs": [
                {
                    "internalType": "int128",
                    "name": "amount_",
                    "type": "int128"
                }
            ],
            "stateMutability": "nonpayable",
            "type": "function"
        },
        {
            "inputs": [
                {
                    "internalType": "uint256",
                    "name": "_amount",
                    "type": "uint256"
                }
            ],
            "name": "intakeRawAndGetBalance",
            "outputs": [
                {
                    "internalType": "int128",
                    "name": "amount_",
                    "type": "int128"
                },
                {
                    "internalType": "int128",
                    "name": "balance_",
                    "type": "int128"
                }
            ],
            "stateMutability": "nonpayable",
            "type": "function"
        },
        {
            "inputs": [
                {
                    "internalType": "address",
                    "name": "_dst",
                    "type": "address"
                },
                {
                    "internalType": "int128",
                    "name": "_amount",
                    "type": "int128"
                }
            ],
            "name": "outputNumeraire",
            "outputs": [
                {
                    "internalType": "uint256",
                    "name": "amount_",
                    "type": "uint256"
                }
            ],
            "stateMutability": "nonpayable",
            "type": "function"
        },
        {
            "inputs": [
                {
                    "internalType": "address",
                    "name": "_dst",
                    "type": "address"
                },
                {
                    "internalType": "uint256",
                    "name": "_amount",
                    "type": "uint256"
                }
            ],
            "name": "outputRaw",
            "outputs": [
                {
                    "internalType": "int128",
                    "name": "amount_",
                    "type": "int128"
                }
            ],
            "stateMutability": "nonpayable",
            "type": "function"
        },
        {
            "inputs": [
                {
                    "internalType": "address",
                    "name": "_dst",
                    "type": "address"
                },
                {
                    "internalType": "uint256",
                    "name": "_amount",
                    "type": "uint256"
                }
            ],
            "name": "outputRawAndGetBalance",
            "outputs": [
                {
                    "internalType": "int128",
                    "name": "amount_",
                    "type": "int128"
                },
                {
                    "internalType": "int128",
                    "name": "balance_",
                    "type": "int128"
                }
            ],
            "stateMutability": "nonpayable",
            "type": "function"
        },
        {
            "inputs": [
                {
                    "internalType": "uint256",
                    "name": "_amount",
                    "type": "uint256"
                }
            ],
            "name": "viewNumeraireAmount",
            "outputs": [
                {
                    "internalType": "int128",
                    "name": "amount_",
                    "type": "int128"
                }
            ],
            "stateMutability": "view",
            "type": "function"
        },
        {
            "inputs": [
                {
                    "internalType": "address",
                    "name": "_addr",
                    "type": "address"
                },
                {
                    "internalType": "uint256",
                    "name": "_amount",
                    "type": "uint256"
                }
            ],
            "name": "viewNumeraireAmountAndBalance",
            "outputs": [
                {
                    "internalType": "int128",
                    "name": "amount_",
                    "type": "int128"
                },
                {
                    "internalType": "int128",
                    "name": "balance_",
                    "type": "int128"
                }
            ],
            "stateMutability": "view",
            "type": "function"
        },
        {
            "inputs": [
                {
                    "internalType": "address",
                    "name": "_addr",
                    "type": "address"
                }
            ],
            "name": "viewNumeraireBalance",
            "outputs": [
                {
                    "internalType": "int128",
                    "name": "balance_",
                    "type": "int128"
                }
            ],
            "stateMutability": "view",
            "type": "function"
        },
        {
            "inputs": [
                {
                    "internalType": "uint256",
                    "name": "_baseWeight",
                    "type": "uint256"
                },
                {
                    "internalType": "uint256",
                    "name": "_quoteWeight",
                    "type": "uint256"
                },
                {
                    "internalType": "address",
                    "name": "_addr",
                    "type": "address"
                }
            ],
            "name": "viewNumeraireBalanceLPRatio",
            "outputs": [
                {
                    "internalType": "int128",
                    "name": "balance_",
                    "type": "int128"
                }
            ],
            "stateMutability": "view",
            "type": "function"
        },
        {
            "inputs": [
                {
                    "internalType": "int128",
                    "name": "_amount",
                    "type": "int128"
                }
            ],
            "name": "viewRawAmount",
            "outputs": [
                {
                    "internalType": "uint256",
                    "name": "amount_",
                    "type": "uint256"
                }
            ],
            "stateMutability": "view",
            "type": "function"
        },
        {
            "inputs": [
                {
                    "internalType": "uint256",
                    "name": "_baseWeight",
                    "type": "uint256"
                },
                {
                    "internalType": "uint256",
                    "name": "_quoteWeight",
                    "type": "uint256"
                },
                {
                    "internalType": "address",
                    "name": "_addr",
                    "type": "address"
                },
                {
                    "internalType": "int128",
                    "name": "_amount",
                    "type": "int128"
                }
            ],
            "name": "viewRawAmountLPRatio",
            "outputs": [
                {
                    "internalType": "uint256",
                    "name": "amount_",
                    "type": "uint256"
                }
            ],
            "stateMutability": "view",
            "type": "function"
        }
    ],
    "bytecode": "608060405234801561001057600080fd5b506116d0806100206000396000f3fe608060405234801561001057600080fd5b50600436106100ea5760003560e01c80636fc390521161008c578063df4efe4911610066578063df4efe49146102ba578063f09a3fc3146102f5578063f5e6c0ca14610321578063fa00102a1461033e576100ea565b80636fc39052146102485780637f328ecc14610277578063ac969a7314610294576100ea565b80631e9b2cba116100c85780631e9b2cba146101a5578063523bf257146101f4578063679aefce146102205780636b677a8f14610228576100ea565b8063011847a0146100ef5780630271c3c81461013c57806305cf7bb41461015c575b600080fd5b61012a6004803603608081101561010557600080fd5b508035906020810135906001600160a01b036040820135169060600135600f0b61035b565b60408051918252519081900360200190f35b61012a6004803603602081101561015257600080fd5b5035600f0b610509565b61018e6004803603606081101561017257600080fd5b50803590602081013590604001356001600160a01b0316610625565b60408051600f9290920b8252519081900360200190f35b6101d1600480360360408110156101bb57600080fd5b506001600160a01b03813516906020013561077f565b6040518083600f0b815260200182600f0b81526020019250505060405180910390f35b6101d16004803603604081101561020a57600080fd5b506001600160a01b038135169060200135610858565b61012a610a0f565b61012a6004803603602081101561023e57600080fd5b5035600f0b610b2c565b61012a6004803603604081101561025e57600080fd5b506001600160a01b038135169060200135600f0b610b65565b6101d16004803603602081101561028d57600080fd5b5035610c85565b61018e600480360360208110156102aa57600080fd5b50356001600160a01b0316610e2d565b61012a600480360360808110156102d057600080fd5b508035906020810135906001600160a01b036040820135169060600135600f0b610f00565b61018e6004803603604081101561030b57600080fd5b506001600160a01b038135169060200135611145565b61018e6004803603602081101561033757600080fd5b503561125f565b61018e6004803603602081101561035457600080fd5b5035611285565b60008060008051602061165a8339815191526001600160a01b03166370a08231856040518263ffffffff1660e01b815260040180826001600160a01b0316815260200191505060206040518083038186803b1580156103b957600080fd5b505afa1580156103cd573d6000803e3d6000fd5b505050506040513d60208110156103e357600080fd5b50519050806103f6576000915050610501565b60006104a18661049b670de0b6b3a7640000735801d0e1c7d977d78e4890880b8e579eb49432766001600160a01b03166370a082318a6040518263ffffffff1660e01b815260040180826001600160a01b0316815260200191505060206040518083038186803b15801561046957600080fd5b505afa15801561047d573d6000803e3d6000fd5b505050506040513d602081101561049357600080fd5b505190611388565b906113ea565b905060006104d06104be8961049b86670de0b6b3a7640000611388565b61049b84670de0b6b3a7640000611388565b9050806104e9600f87900b670de0b6b3a7640000611449565b670de0b6b3a764000002816104fa57fe5b0493505050505b949350505050565b600080610514610a0f565b90508061052d600f85900b670de0b6b3a7640000611449565b6305f5e100028161053a57fe5b604080516323b872dd60e01b81523360048201523060248201529290910460448301819052905190935060009160008051602061165a833981519152916323b872dd9160648082019260209290919082900301818787803b15801561059e57600080fd5b505af11580156105b2573d6000803e3d6000fd5b505050506040513d60208110156105c857600080fd5b505190508061061e576040805162461bcd60e51b815260206004820152601f60248201527f43757276652f434144432d7472616e736665722d66726f6d2d6661696c656400604482015290519081900360640190fd5b5050919050565b60008060008051602061165a8339815191526001600160a01b03166370a08231846040518263ffffffff1660e01b815260040180826001600160a01b0316815260200191505060206040518083038186803b15801561068357600080fd5b505afa158015610697573d6000803e3d6000fd5b505050506040513d60208110156106ad57600080fd5b50519050806106c8576106c060006114b1565b915050610778565b600061073b8561049b670de0b6b3a7640000735801d0e1c7d977d78e4890880b8e579eb49432766001600160a01b03166370a08231896040518263ffffffff1660e01b815260040180826001600160a01b0316815260200191505060206040518083038186803b15801561046957600080fd5b905060006107586104be8861049b86670de0b6b3a7640000611388565b9050610772670de0b6b3a7640000808584025b04906114cf565b93505050505b9392505050565b600080600061078c610a0f565b90506107a7670de0b6b3a76400006305f5e10086840261076b565b9250600060008051602061165a8339815191526001600160a01b03166370a08231876040518263ffffffff1660e01b815260040180826001600160a01b0316815260200191505060206040518083038186803b15801561080657600080fd5b505afa15801561081a573d6000803e3d6000fd5b505050506040513d602081101561083057600080fd5b5051905061084d670de0b6b3a76400006305f5e10084840261076b565b925050509250929050565b6000806000610865610a0f565b905060006305f5e100858302049050600060008051602061165a8339815191526001600160a01b031663a9059cbb88846040518363ffffffff1660e01b815260040180836001600160a01b0316815260200182815260200192505050602060405180830381600087803b1580156108db57600080fd5b505af11580156108ef573d6000803e3d6000fd5b505050506040513d602081101561090557600080fd5b5051905080610958576040805162461bcd60e51b815260206004820152601a60248201527910dd5c9d994bd0d05110cb5d1c985b9cd9995c8b59985a5b195960321b604482015290519081900360640190fd5b604080516370a0823160e01b8152306004820152905160009160008051602061165a833981519152916370a0823191602480820192602092909190829003018186803b1580156109a757600080fd5b505afa1580156109bb573d6000803e3d6000fd5b505050506040513d60208110156109d157600080fd5b505190506109e783670de0b6b3a76400006114cf565b9550610a02670de0b6b3a76400006305f5e10083870261076b565b9450505050509250929050565b600080737e728dfa6bca9023d9abee759fdf56beab8ac7ad6001600160a01b031663feaf968c6040518163ffffffff1660e01b815260040160a06040518083038186803b158015610a5f57600080fd5b505afa158015610a73573d6000803e3d6000fd5b505050506040513d60a0811015610a8957600080fd5b506020015160408051633fabe5a360e21b81529051919250600091730567f2323251f0aab15c8dfb1967e4e8a7d42aee9163feaf968c9160048083019260a0929190829003018186803b158015610adf57600080fd5b505afa158015610af3573d6000803e3d6000fd5b505050506040513d60a0811015610b0957600080fd5b50602001516305f5e1009005670de0b6b3a7640000928390050290910292915050565b600080610b37610a0f565b905080610b50600f85900b670de0b6b3a7640000611449565b6305f5e1000281610b5d57fe5b049392505050565b600080610b70610a0f565b905080610b89600f85900b670de0b6b3a7640000611449565b6305f5e1000281610b9657fe5b049150600060008051602061165a8339815191526001600160a01b031663a9059cbb86856040518363ffffffff1660e01b815260040180836001600160a01b0316815260200182815260200192505050602060405180830381600087803b158015610c0057600080fd5b505af1158015610c14573d6000803e3d6000fd5b505050506040513d6020811015610c2a57600080fd5b5051905080610c7d576040805162461bcd60e51b815260206004820152601a60248201527910dd5c9d994bd0d05110cb5d1c985b9cd9995c8b59985a5b195960321b604482015290519081900360640190fd5b505092915050565b604080516323b872dd60e01b81523360048201523060248201526044810183905290516000918291829160008051602061165a833981519152916323b872dd9160648082019260209290919082900301818787803b158015610ce657600080fd5b505af1158015610cfa573d6000803e3d6000fd5b505050506040513d6020811015610d1057600080fd5b5051905080610d66576040805162461bcd60e51b815260206004820152601f60248201527f43757276652f434144432d7472616e736665722d66726f6d2d6661696c656400604482015290519081900360640190fd5b604080516370a0823160e01b8152306004820152905160009160008051602061165a833981519152916370a0823191602480820192602092909190829003018186803b158015610db557600080fd5b505afa158015610dc9573d6000803e3d6000fd5b505050506040513d6020811015610ddf57600080fd5b505190506000610ded610a0f565b9050610e08670de0b6b3a76400006305f5e10084840261076b565b9350610e23670de0b6b3a76400006305f5e10088840261076b565b9450505050915091565b600080610e38610a0f565b9050600060008051602061165a8339815191526001600160a01b03166370a08231856040518263ffffffff1660e01b815260040180826001600160a01b0316815260200191505060206040518083038186803b158015610e9757600080fd5b505afa158015610eab573d6000803e3d6000fd5b505050506040513d6020811015610ec157600080fd5b5051905080610edd57610ed460006114b1565b92505050610efb565b610ef6670de0b6b3a76400006305f5e10083850261076b565b925050505b919050565b60008060008051602061165a8339815191526001600160a01b03166370a08231856040518263ffffffff1660e01b815260040180826001600160a01b0316815260200191505060206040518083038186803b158015610f5e57600080fd5b505afa158015610f72573d6000803e3d6000fd5b505050506040513d6020811015610f8857600080fd5b5051905080610f9b576000915050610501565b600061100e8661049b670de0b6b3a7640000735801d0e1c7d977d78e4890880b8e579eb49432766001600160a01b03166370a082318a6040518263ffffffff1660e01b815260040180826001600160a01b0316815260200191505060206040518083038186803b15801561046957600080fd5b9050600061102b6104be8961049b86670de0b6b3a7640000611388565b905080611044600f87900b670de0b6b3a7640000611449565b670de0b6b3a7640000028161105557fe5b604080516323b872dd60e01b81523360048201523060248201529290910460448301819052905190955060009160008051602061165a833981519152916323b872dd9160648082019260209290919082900301818787803b1580156110b957600080fd5b505af11580156110cd573d6000803e3d6000fd5b505050506040513d60208110156110e357600080fd5b5051905080611139576040805162461bcd60e51b815260206004820152601f60248201527f43757276652f434144432d7472616e736665722d66726f6d2d6661696c656400604482015290519081900360640190fd5b50505050949350505050565b600080611150610a0f565b905060006305f5e100848302049050600060008051602061165a8339815191526001600160a01b031663a9059cbb87846040518363ffffffff1660e01b815260040180836001600160a01b0316815260200182815260200192505050602060405180830381600087803b1580156111c657600080fd5b505af11580156111da573d6000803e3d6000fd5b505050506040513d60208110156111f057600080fd5b5051905080611243576040805162461bcd60e51b815260206004820152601a60248201527910dd5c9d994bd0d05110cb5d1c985b9cd9995c8b59985a5b195960321b604482015290519081900360640190fd5b61125582670de0b6b3a76400006114cf565b9695505050505050565b60008061126a610a0f565b9050610778670de0b6b3a76400006305f5e10085840261076b565b604080516323b872dd60e01b8152336004820152306024820152604481018390529051600091829160008051602061165a833981519152916323b872dd91606480830192602092919082900301818787803b1580156112e357600080fd5b505af11580156112f7573d6000803e3d6000fd5b505050506040513d602081101561130d57600080fd5b5051905080611363576040805162461bcd60e51b815260206004820152601f60248201527f43757276652f636164632d7472616e736665722d66726f6d2d6661696c656400604482015290519081900360640190fd5b600061136d610a0f565b9050610ef6670de0b6b3a76400006305f5e10086840261076b565b600082611397575060006113e4565b828202828482816113a457fe5b04146113e15760405162461bcd60e51b815260040180806020018281038252602181526020018061167a6021913960400191505060405180910390fd5b90505b92915050565b6000808211611440576040805162461bcd60e51b815260206004820152601a60248201527f536166654d6174683a206469766973696f6e206279207a65726f000000000000604482015290519081900360640190fd5b818381610b5d57fe5b600081611458575060006113e4565b600083600f0b121561146957600080fd5b600f83900b6001600160801b038316810260401c90608084901c026001600160c01b0381111561149857600080fd5b60401b81198111156114a957600080fd5b019392505050565b6000677fffffffffffffff8211156114c857600080fd5b5060401b90565b6000816114db57600080fd5b60006114e7848461150f565b90506f7fffffffffffffffffffffffffffffff6001600160801b03821611156113e157600080fd5b60008161151b57600080fd5b60006001600160c01b0384116115405782604085901b8161153857fe5b049050611645565b60c084811c6401000000008110611559576020918201911c5b62010000811061156b576010918201911c5b610100811061157c576008918201911c5b6010811061158c576004918201911c5b6004811061159c576002918201911c5b600281106115ab576001820191505b60bf820360018603901c6001018260ff0387901b816115c657fe5b0492506001600160801b038311156115dd57600080fd5b608085901c83026001600160801b038616840260c088901c604089901b82811015611609576001820391505b608084901b92900382811015611620576001820391505b829003608084901c821461163057fe5b88818161163957fe5b04870196505050505050505b6001600160801b038111156113e157600080fdfe000000000000000000000000e9e7cea3dedca5984780bafc599bd69add087d56536166654d6174683a206d756c7469706c69636174696f6e206f766572666c6f77a2646970667358221220f05c1e72096b16d84edde27239b5d0ae5232559db6813141c5dc52f36f5dda2364736f6c63430007060033",
    "sourcePath": "/Users/vineetkumar/codebase/Open-Dao-PRJ/Contracts/omnitrade-contracts/contracts/assimilators/TwtToUsdAssimilator.sol",
    "compiler": {
        "name": "solc",
        "version": "0.7.6+commit.7338295f"
    },
    "functionHashes": {
        "getRate()": "679aefce",
        "intakeNumeraire(int128)": "0271c3c8",
        "intakeNumeraireLPRatio(uint256,uint256,address,int128)": "df4efe49",
        "intakeRaw(uint256)": "fa00102a",
        "intakeRawAndGetBalance(uint256)": "7f328ecc",
        "outputNumeraire(address,int128)": "6fc39052",
        "outputRaw(address,uint256)": "f09a3fc3",
        "outputRawAndGetBalance(address,uint256)": "523bf257",
        "viewNumeraireAmount(uint256)": "f5e6c0ca",
        "viewNumeraireAmountAndBalance(address,uint256)": "1e9b2cba",
        "viewNumeraireBalance(address)": "ac969a73",
        "viewNumeraireBalanceLPRatio(uint256,uint256,address)": "05cf7bb4",
        "viewRawAmount(int128)": "6b677a8f",
        "viewRawAmountLPRatio(uint256,uint256,address,int128)": "011847a0"
    },
    "gasEstimates": {
        "creation": {
            "codeDepositCost": "1168000",
            "executionCost": "1214",
            "totalCost": "1169214"
        },
        "external": {
            "getRate()": "infinite",
            "intakeNumeraire(int128)": "infinite",
            "intakeNumeraireLPRatio(uint256,uint256,address,int128)": "infinite",
            "intakeRaw(uint256)": "infinite",
            "intakeRawAndGetBalance(uint256)": "infinite",
            "outputNumeraire(address,int128)": "infinite",
            "outputRaw(address,uint256)": "infinite",
            "outputRawAndGetBalance(address,uint256)": "infinite",
            "viewNumeraireAmount(uint256)": "infinite",
            "viewNumeraireAmountAndBalance(address,uint256)": "infinite",
            "viewNumeraireBalance(address)": "infinite",
            "viewNumeraireBalanceLPRatio(uint256,uint256,address)": "infinite",
            "viewRawAmount(int128)": "infinite",
            "viewRawAmountLPRatio(uint256,uint256,address,int128)": "infinite"
        }
    }
}